:1000000010C02AC029C028C027C026C025C024C0CF
:1000100023C022C021C020C01FC01EC01DC01CC0E4
:100020001BC011241FBECFE5D1E0DEBFCDBF10E065
:10003000A0E6B0E0E4EDF2E002C005900D92A23837
:10004000B107D9F720E0A2E8B0E001C01D92A03AC4
:10005000B207E1F7FFD03CC1D3CFDC01FA01108237
:100060008C918623E9F78CE18A95F1F7000088E30B
:100070008A95F1F700C08C91862319F08081816008
:10008000808388E38A95F1F700C08C91862319F06C
:1000900080818260808388E38A95F1F700C08C912B
:1000A000862319F080818460808388E38A95F1F744
:1000B00000C08C91862319F080818860808388E35A
:1000C0008A95F1F700C08C91862319F080818061B8
:1000D000808388E38A95F1F700C08C91862319F01C
:1000E00080818062808388E38A95F1F700C08C91DB
:1000F000862319F080818064808388E38A95F1F7F4
:1001000000C08C91682319F080818068808388E327
:100110008A95F1F700C08CE18A95F1F70000089507
:10012000FC019081862F80959823908398E39A957F
:10013000F1F700C0908140FF51C0962B908398E367
:100140009A95F1F700C0908141FF4AC0962B9083A9
:1001500098E39A95F1F700C0908142FF43C0962B37
:10016000908398E39A95F1F700C0908143FF3CC0DB
:10017000962B908398E39A95F1F700C0908144FF05
:1001800035C0962B908398E39A95F1F700C0908143
:1001900045FF2EC0962B908398E39A95F1F700C007
:1001A000908146FF27C0962B908398E39A95F1F7AC
:1001B00000C047FF21C08081862B808388E38A9519
:1001C000F1F700C08081682B608398E39A95F1F77E
:1001D00000C088E38A95F1F700C008959823AECF58
:1001E0009823B5CF9823BCCF9823C3CF9823CACFE9
:1001F0009823D1CF9823D8CF90818923DECFFF9247
:100200000F931F93CF93DF93EC01F62E8A01109288
:100210009F0010929E00E0919E00F0919F00E00FE1
:10022000F11F40816F2DCE017BDF80919E00909168
:100230009F00019690939F0080939E00800F911FD6
:10024000FC0180818111E7CFDF91CF911F910F9148
:10025000FF90089580E886BD16BCD99AD19A109275
:100260009D0010929C004BE950E061E089E390E032
:10027000F4DE40E650E062E08BE390E0C0DF809186
:100280009C0090919D009C012F5F3F4F30939D00FB
:1002900020939C008E579F4F40919B00FC01408310
:1002A0002831310521F410929D0010929C0042E803
:1002B00050E062E08BE390E0A2DF42E262E08BE399
:1002C00090E02EDF4AE062E08BE390E029DFCBCFC5
:0402D000F894FFCFD0
:1002D40068656C6C6F2E667464692E34342E6563A5
:1002E400686F2E633A20796F752074797065642085
:0202F4002200E6
:00000001FF
